:020000040800F2
:10000000000005242D1A00083119000833190008D2
:1000100035190008371900083919000800000000D8
:1000200000000000000000000000000071AE0008A9
:100030003B1900080000000001AF00089DA6000861
:100040007D1A00087D1A00087D1A00087D1A000834
:100050007D1A00087D1A00087D1A00087D1A000824
:100060007D1A00087D1A00087D1A00087D1A000814
:100070007D1A00087D1A00087D1A00087D1A000804
:100080007D1A00087D1A00087D1A00087D1A0008F4
:100090007D1A00087D1A00087D1A00087D1A0008E4
:1000A0007D1A00087D1A00087D1A00087D1A0008D4
:1000B0007D1A00087D1A00087D1A00087D1A0008C4
:1000C0007D1A00087D1A00087D1A00087D1A0008B4
:1000D0007D1A00083D1900087D1A0008491900081A
:1000E0007D1A00087D1A0008000000007D1A000833
:1000F0007D1A00087D1A00087D1A00087D1A000884
:100100007D1A00087D1A00087D1A00087D1A000873
:100110007D1A00087D1A0008551900087D1A00088C
:100120007D1A00087D1A00087D1A00087D1A000853
:100130007D1A00087D1A00087D1A00087D1A000843
:1001400000000000000000000000000000000000AF
:100150007D1A00087D1A00087D1A00087D1A000823
:100160007D1A00087D1A00087D1A00087D1A000813
:100170007D1A00087D1A00087D1A00087D1A000803
:100180007D1A00087D1A00087D1A00087D1A0008F3
:100190007D1A00087D1A00087D1A00087D1A0008E3
:1001A000611900087D1A00086D19000800000000A0
:1001B0007D1A00087D1A00087D1A00087D1A0008C3
:1001C0007D1A00087D1A00080000000000000000F1
:1001D00000000000000000007D1A00080000000080
:1001E000000000000000000000000000000000000F
:1001F00000000000000000007D1A00087D1A0008C1
:100200007D1A00087D1A0008000000007D1A000811
:100210007D1A00087D1A00087D1A00087D1A000862
:100220007D1A0008000000007D1A00080000000090
:100230007D1A00087D1A0008000000007D1A0008E1
:100240007D1A00087D1A00087D1A00087D1A000832
:100250007D1A00087D1A00087D1A00087D1A000822
:100260007D1A00087D1A00087D1A00087D1A000812
:100270007D1A00087D1A00087D1A000800000000A1
:100280007D1A00087D1A00087D1A00087D1A0008F2
:10029000000000007D1A00087D1A00087D1A000881
:1002A0007D1A00087D1A00087D1A00087D1A0008D2
:1002B0007D1A00087D1A00087D1A00087D1A0008C2
:0C02C0007D1A00087D1A00087D1A000855
:1002D00010B5054C237833B9044B13B10448AFF380
:1002E00000800123237010BD1001002400000000D5
:1002F000C8E8020808B5034B1BB103490348AFF334
:10030000008008BD0000000014010024C8E80208B5
:1003100001F0FF01102A2BDB10F0070F08D010F8B6
:10032000013B013A8B422DD010F0070F42B3F6D1BA
:10033000F0B441EA012141EA014122F007047FF0D3
:1003400000070023F0E80256083C85EA010586EA2A
:10035000010685FA47F5A3FA87F586FA47F6A5FA66
:1003600087F68EB9EED1F0BC01F0FF0102F0070272
:1003700032B110F8013B013A83EA010313B1F8D11D
:100380000020704701387047002D06BF35460338FE
:10039000073815F0010F07D1013015F4807F02BF37
:1003A000013015F4C03F0130F0BC0138704700BF88
:1003B00081F0004102E000BF83F0004330B54FEA16
:1003C00041044FEA430594EA050F08BF90EA020F83
:1003D0001FBF54EA000C55EA020C7FEA645C7FEA16
:1003E000655C00F0E2804FEA5454D4EB5555B8BF39
:1003F0006D420CDD2C4480EA020281EA030382EAAA
:10040000000083EA010180EA020281EA0303362D3B
:1004100088BF30BD11F0004F4FEA01314FF4801C0E
:100420004CEA113102D0404261EB410113F0004F20
:100430004FEA03334CEA133302D0524263EB4303D7
:1004400094EA050F00F0A780A4F10104D5F1200E75
:100450000DDB02FA0EFC22FA05F2801841F10001D0
:1004600003FA0EF2801843FA05F359410EE0A5F1A4
:1004700020050EF1200E012A03FA0EFC28BF4CF0D5
:10048000020C43FA05F3C01851EBE37101F000458B
:1004900007D54FF0000EDCF1000C7EEB00006EEB98
:1004A0000101B1F5801F1BD3B1F5001F0CD3490822
:1004B0005FEA30004FEA3C0C04F101044FEA445279
:1004C00012F5800F80F09A80BCF1004F08BF5FEA00
:1004D000500C50F1000041EB045141EA050130BDE0
:1004E0005FEA4C0C404141EB0101013C28BFB1F5F2
:1004F000801FE9D291F0000F04BF01460020B1FA3D
:1005000081F308BF2033A3F10B03B3F120020CDA0F
:100510000C3208DD02F1140CC2F10C0201FA0CF0ED
:1005200021FA02F10CE002F11402D8BFC2F1200C52
:1005300001FA02F120FA0CFCDCBF41EA0C01904008
:10054000E41AA2BF01EB0451294330BD6FEA040451
:100550001F3C1CDA0C340EDC04F11404C4F120023C
:1005600020FA04F001FA02F340EA030021FA04F34E
:1005700045EA030130BDC4F10C04C4F1200220FAA5
:1005800002F001FA04F340EA0300294630BD21FAE3
:1005900004F0294630BD94F0000F83F4801306BFA9
:1005A00081F480110134013D4EE77FEA645C18BF9D
:1005B0007FEA655C29D094EA050F08BF90EA020F34
:1005C00005D054EA000C04BF1946104630BD91EA2C
:1005D000030F1EBF0021002030BD5FEA545C05D12F
:1005E0004000494128BF41F0004130BD14F580046E
:1005F0003CBF01F5801130BD01F0004545F0FE41E2
:1006000041F470014FF0000030BD7FEA645C1ABF16
:10061000194610467FEA655C1CBF0B46024650EA4D
:10062000013406BF52EA033591EA030F41F4002179
:1006300030BD00BF90F0000F04BF0021704730B5FF
:100640004FF4806404F132044FF000054FF00001D4
:1006500050E700BF90F0000F04BF0021704730B595
:100660004FF4806404F1320410F0004548BF40426A
:100670004FF000013EE700BF42004FEAE2014FEABF
:1006800031014FEA02701FBF12F07F4393F07F4F9A
:1006900081F06051704732F07F4208BF704793F09D
:1006A0007F4F04BF41F40021704730B54FF46074B0
:1006B00001F0004521F000411CE700BF50EA0102B3
:1006C00008BF704730B54FF000050AE050EA01025C
:1006D00008BF704730B511F0004502D5404261EBCC
:1006E00041014FF4806404F132045FEA915C3FF40D
:1006F000D8AE4FF003025FEADC0C18BF03325FEAAA
:10070000DC0C18BF033202EBDC02C2F1200300FA5A
:1007100003FC20FA02F001FA03FE40EA0E0021FA7F
:1007200002F11444BDE600BF53B94AB9002908BF1D
:1007300000281CBF4FF0FF314FF0FF3000F06AB9C6
:10074000ADF1080C6DE904CE00F006F8DDF804E028
:10075000DDE9022304B070472DE9F047089D0C46FF
:10076000002B4ED194468C458646B2FA82F262D96D
:100770004AB1C2F12003914020FA03F30CFA02FCC3
:10078000194300FA02FE4FEA1C471FFA8CF6B1FB30
:10079000F7F44FEA1E4307FB141143EA014304FB3D
:1007A00006F199420AD91CEB030304F1FF3080F0F3
:1007B0001281994240F20F81023C6344591A1FFA98
:1007C0008EF3B1FBF7F007FB101143EA014300FB86
:1007D00006F69E420AD91CEB030300F1FF3180F0BC
:1007E000FC809E4240F2F980634402389B1B40EA41
:1007F000044000211DB1D3400022C5E90032BDE80C
:10080000F0878B4205D90DB1C5E9000100210846EA
:10081000F5E7B3FA83F1002946D1A34202D390420F
:10082000C0F0F080861A64EB03030120002DE6D0AF
:10083000C5E90063E3E7002A40F09080A1EB0C04D7
:100840004FEA1C481FFA8CF70121B4FBF8F64FEA77
:100850001E4308FB164443EA044307FB06F0984294
:1008600008D91CEB030306F1FF3402D2984200F2D0
:10087000CD8026461C1A1FFA8EF3B4FBF8F008FB55
:10088000104443EA044300FB07F79F4208D91CEBDE
:10089000030300F1FF3402D29F4200F2B0802046F1
:1008A000DB1B40EA0640A5E7C1F120068B4022FA97
:1008B00006F71F4320FA06FC04FA01F343EA0C038F
:1008C000F44000FA01F8380C4FEA1349B4FBF0FE8B
:1008D0001FFA87FC00FB1E4449EA04440EFB0CF996
:1008E000A14502FA01F20AD93C190EF1FF3A80F053
:1008F0008480A14540F28180AEF1020E3C44A4EB1D
:1009000009041FFA83F9B4FBF0F300FB134449EA2E
:10091000044403FB0CFCA44507D93C1903F1FF3048
:1009200067D2A44565D9023B3C4443EA0E40A0FB94
:100930000293A4EB0C049C42CE469C4651D34ED06D
:1009400055B1B8EB0E0364EB0C0404FA06F6CB4089
:100950001E43CC40C5E90064002150E7C2F12003EA
:1009600020FA03F10CFA02FC24FA03F394400C433E
:100970004FEA1C4800FA02FE1FFA8CF7B3FBF8F0AE
:1009800008FB1031230C43EA014300FB07F19942B5
:1009900008D91CEB030300F1FF362CD299422AD967
:1009A000023863445B1AA4B2B3FBF8F108FB1133BD
:1009B00044EA034401FB07F3A34208D91CEB0404F7
:1009C00001F1FF3613D2A34211D902396444E41A6B
:1009D00041EA004139E70446F0E6084606E7C84523
:1009E000AED2B9EB020E63EB070C0138A8E7314633
:1009F000EDE7034699E73046D4E7D6467FE7634400
:100A000002384DE70646234608460FE7023E634498
:100A100030E700BF704700BF014900200BF0EEBB7C
:100A2000511E000873B50023174D184E6424ADF80D
:100A300004302B681BB3328801A81549B2FBF4F2CD
:100A40002CF0B6FE328812490DF10500B2FBF4F32A
:100A500004FB132292B22CF0ABFE4FF0FF330222C4
:100A60000DF105010B4809F0B8FC4FF0FF330222ED
:100A70000DF10501074809F0B0FC00232B6064204C
:100A800009F08DFED5E700BF2C01002430010024C1
:100A9000A6210308D401002410B59CB04C220021EB
:100AA00009A82CF07DFF2022002101A82CF078FF5E
:100AB000042007F0E5FA002300931B4B9A6922F407
:100AC00040429A619A6902F440420092009A9A69FF
:100AD0009104FCD501224FF4803300242C2109A875
:100AE0001B94CDE909230223CDE912331493CDE9F8
:100AF00017330C23CDE91512CDE9193407F0FEFAAE
:100B000003213F23082201A80394CDE901314023AA
:100B1000CDE904234FF480620693CDE9072307F063
:100B200009FE1CB010BD00BF0048025800B5AFB0B0
:100B30000021982208A82CF033FF4FF00072002308
:100B40006846CDE9002305225023CDE90223022384
:100B5000CDE904330693802307932023139308F0F1
:100B60006FF82FB05DF804FB2DE98048A1B010228A
:100B70000021012513A800242CF012FF1C2705F0EA
:100B8000CDF94FF0105CD34B13A8ADF84C500326B1
:100B9000CDE914C3D04B169305F0DEF94FF0E043D6
:100BA00013A88DF857401493ADF85A408DF84D5066
:100BB0008DF8547005F0D0F9022313A88DF8576012
:100BC0008DF84D3016238DF8543040F20113ADF8F6
:100BD0005A3005F0C1F94FF0104313A88DF8574073
:100BE0001493ADF85A4004248DF84D608DF854707C
:100BF00005F0B2F9192313A88DF84D408DF8543043
:100C00008DF857608DF85A5005F0A6F9204605F08A
:100C100093F9B24B5A6912F4003211D1BFF34F8FDE
:100C2000BFF36F8FC3F85022BFF34F8FBFF36F8FA7
:100C30005A6942F400325A61BFF34F8FBFF36F8F8E
:100C4000A64A536913F4803323D1C2F88430BFF32A
:100C50004F8FD2F8803043F6E074C3F3C900C3F37A
:100C60004E335B0103EA0406014646EA8175013909
:100C7000C2F86052F9D2203B13F1200FF2D1BFF33A
:100C80004F8F536943F480335361BFF34F8FBFF3EA
:100C90006F8F05F09FF80024FFF7FEFE0126FFF797
:100CA00045FF1422002113A82CF07AFE8C4B08215A
:100CB0008C48D3F8E0204FF0080B02274FF48069EE
:100CC00042F002024FF480454FF004084FF0030A4F
:100CD000C3F8E020D3F8E02002F002020092009A6C
:100CE000D3F8E02042F04002C3F8E020D3F8E0203F
:100CF00002F040020192019AD3F8E02042F008028B
:100D0000C3F8E020D3F8E02002F008020292029A31
:100D1000D3F8E02042F01002C3F8E020D3F8E0203E
:100D200002F010020392039AD3F8E02042F001028D
:100D3000C3F8E020D3F8E02002F001020492049A04
:100D4000D3F8E02042F08002C3F8E020D3F8E0209E
:100D500002F080020592059AD3F8E02042F00402E6
:100D6000C3F8E020D3F8E02002F004020692069ACD
:100D7000D3F8E02042F02002C3F8E0200022D3F8AC
:100D8000E03003F020030793079B05F0F1FD0022FC
:100D900048F23801544805F0EBFD00224FF4806121
:100DA000524805F0E5FD00220121514805F0E0FD23
:100DB00013A94C48CDE913B6CDE9154405F05AFC0A
:100DC000802313A94B481797CDE91337CDE9154474
:100DD00005F050FC48F2380313A94348CDE9133617
:100DE000CDE9154405F046FC13A943481594CDE917
:100DF000136405F03FFC13A93C48CDE91396CDE9F7
:100E0000154405F037FC13A936481796CDE913575A
:100E1000CDE9154405F02EFC13A938481594CDE909
:100E2000138405F027FC13A931481594CDF858A078
:100E3000CDE9136605F01EFC13A931481594CDE9E0
:100E4000135405F017FC2F482F4B06620360848073
:100E50002E4DC0E9054405F0ABF84FF440332C4863
:100E60002C4AC0E90264C0E9002305F039FB3422B2
:100E7000214613A82CF094FD274B2821352040F261
:100E8000152C40F2352E2C61AC8685F83640C5E92C
:100E900000340923C5E905130B23C5E9070340F214
:100EA0001B132846C5E909C340F21D13C5E90244D6
:100EB000C5E90BE306F090F9FF21CDF868904FF0FB
:100EC00005094FF488734FF4F07228461394ADF877
:100ED0007C4023E0120000030100010100ED00E06E
:100EE000004402580010025800180258000C025822
:100EF000000002580004025800080258001C025862
:100F00000014025830040024004C0258200300242E
:100F1000C803002400100052001000508DF87E40DD
:100F2000824DCDE918144FF0E041CDE91B914FF00F
:100F3000180913A9CDE91D23CDE914242246CDE9D2
:100F4000163606F014FA21464A4613A82CF028FD5E
:100F5000774B4FF080722846AC60EC63C5E90038EF
:100F60002023C5E90574C5E90323C5E90974C5E96A
:100F70000744C5E90B44C5E90DB406F085FB4FF005
:100F8000011341F2883213A9169303F57F03284613
:100F900015961793CDE9136606F002FE284606F073
:100FA000E7FB40F201132046624DADF8383004F003
:100FB0006DFB0EA9204604F05BFC204604F02EFBDE
:100FC0004A46214613A82CF0EBFC102221460AA821
:100FD0002CF0E6FC142221460EA82CF0E1FC564B26
:100FE0004FF080512846AC60C5E900384FF080636F
:100FF000C5E903391723C5E90B134FF4C873C5E9D5
:101000000974EB63C5E90584C5E90744C5E90D44E6
:10101000CDE9084406F038FB484B41F2883213A969
:10102000169303F57F03284615971793CDE9137799
:1010300006F0B6FD062341F288320AA928460D962D
:10104000CDF828A03E4FCDE90B3406F0F3FB4FF46A
:10105000405341F288320EA910934FF000532846B6
:10106000119612930E940F9406F00AFC08A92846D4
:10107000344E354D089406F023FD00F0D5FC4FF4B6
:10108000165328462C61C5E900630C26C5E90244C5
:10109000C5E90564C5E90744C5E9094409F04DFA05
:1010A0002146284609F0BAFA2146284609F0D6FA20
:1010B0002846264D09F097FA4FF4E1332846AC62F2
:1010C000C5E90073C5E90244C5E90446C5E906441B
:1010D000C5E9084409F031FA2146284609F09EFA8C
:1010E0002146284609F0BAFA284609F07CFA00F0B1
:1010F000C7FC00F0C4FC09F0DFFA154A2146154888
:1011000009F006FB144B154A21461860144809F0F3
:10111000FFFA144B144A21461860144809F0F8FAF3
:10112000134B186009F0DAFAFEE700BFC40200248E
:10113000005000526802002400A00052020001008A
:101140000048004000100140D40100244001002468
:101150008CE90208250A00083C01002468E902081D
:101160008F1A00083801002444E9020805340008F9
:10117000340100240268034B9A4201D104F058BEA6
:10118000704700BF00100040704700000A4B82B05B
:101190000F216FF00100D3F8F42042F00202C3F8EF
:1011A000F4200022D3F8F43003F002030193019BF2
:1011B00002B004F073BE00BF00440258026882B05F
:1011C000094B9A420DD1A3F50063D3F8E02042F415
:1011D0000022C3F8E020D3F8E03003F400230193A9
:1011E000019B02B0704700BF004C02580F4B07B57F
:1011F00002689A4217D10E4B05215A20D3F8D42009
:1012000042F01002C3F8D4200022D3F8D43003F007
:1012100010030193019B04F041FE5A2003B05DF8D6
:1012200004EB04F06DBE03B05DF804FB0010005247
:10123000004402582DE9F041BCB0044614220021BC
:1012400009A82CF0ADFBB82200210EA82CF0A8FBB9
:101250002268774B9A4240F0E7804FF0005200231B
:101260000EA8CDE90E234FF490731922CDE918236F
:101270000223CDE91A331E231C934FF400731E93EF
:1012800007F0DEFC08B1FFF77FFF6A4B002402265F
:101290000325D3F8E4200E2709A9674842F0080285
:1012A0004FF05808C3F8E420D3F8E42002F0080215
:1012B0000192019AD3F8E02042F00202C3F8E02044
:1012C000D3F8E02002F002020292029AD3F8E02062
:1012D00042F00802C3F8E020D3F8E02002F0080250
:1012E0000392039AD3F8E02042F01002C3F8E02002
:1012F000D3F8E02002F010020492049AD3F8E02020
:1013000042F00102C3F8E020D3F8E02002F001022D
:101310000592059AD3F8E02042F04002C3F8E0209D
:10132000D3F8E02002F040020692069AD3F8E020BB
:1013300042F08002C3F8E020D3F8E02002F08002FF
:101340000792079AD3F8E02042F00402C3F8E020A5
:10135000D3F8E0300D9703F004030893089B40F2A4
:101360000333CDE90B45CDE9093605F083F949236F
:1013700009A932480D97CDE90936CDE90B4505F0AD
:1013800079F94BF6030309A92D480D97CDE90936E4
:10139000CDE90B4505F06EF94FF4807309A9294892
:1013A000CDE909360D23CDE90B450D9305F062F922
:1013B0004FF4814309A924480D97CDE90936CDE9B9
:1013C0000B4505F057F948F6087309A91F480D9712
:1013D000CDE90936CDE90B4505F04CF9C02309A943
:1013E0001B480D97CDE90936CDE90B4505F042F9CB
:1013F00009A914480D97CDE90986CDE90B4505F0FB
:1014000039F9102309A91148CDE909360923CDE995
:101410000B450D9305F02EF940462246052104F0B8
:101420003DFD404604F06CFD3CB0BDE8F08100BFDE
:10143000001000500044025800040258000C0258EA
:10144000001002580000025800180258001C0258F0
:10145000000802582DE9F04391B0044614220021FF
:101460000BA82CF09DFA2368884A934240F0B08084
:10147000874A13680133012B13600CD1854BD3F8D5
:10148000D42042F40012C3F8D420D3F8D43003F4AB
:1014900000130093009B7F4B022503240927D3F8F8
:1014A000D4200BA97C48002642F480424FF00A0861
:1014B0004FF00409C3F8D420D3F8D42002F48042BA
:1014C0000192019AD3F8E02042F04002C3F8E020F4
:1014D000D3F8E02002F040020292029AD3F8E02012
:1014E00042F00802C3F8E020D3F8E02002F008023E
:1014F0000392039AD3F8E02042F01002C3F8E020F0
:10150000D3F8E02002F010020492049AD3F8E0200D
:1015100042F02002C3F8E020D3F8E02002F02002DD
:101520000592059AD3F8E02042F00202C3F8E020C9
:10153000D3F8E03003F002030693069B4FF40073E8
:10154000CDE90B35CDE90E4705F094F8B0230BA992
:101550005248CDF83C80CDE90B35CDE90D6405F05E
:1015600089F80BA94E480F97CDE90B95CDE90D648D
:1015700005F080F840230BA94748CDF83C80CDE921
:101580000B35CDE90D6405F075F84FF460530BA9E8
:1015900042480F97CDE90B35CDE90D6405F06AF8A7
:1015A0004FF480630BA93F480F97CDE90B35CDE988
:1015B0000D6405F05FF80BA93B48CDF83C80CDE900
:1015C0000B95CDE90D6405F055F811B0BDE8F08339
:1015D000364A9342F9D12E4A13680133012B136026
:1015E0000CD12C4BD3F8D42042F40012C3F8D420F1
:1015F000D3F8D43003F400130793079B254B03243F
:1016000002250926D3F8D4200BA92348002742F449
:101610000022C3F8D420D3F8D42002F40022089288
:10162000089AD3F8E02042F04002C3F8E020D3F853
:10163000E02002F040020992099AD3F8E02042F03B
:101640002002C3F8E020D3F8E03003F020030A932F
:101650000A9B40F60303CDE90E46CDE90B3505F0B4
:1016600009F84FF4A0530BA90B480F94CDE90B35A3
:10167000CDE90D7404F0FEFF41F21F030BA90948E8
:101680000F96CDE90B35CDE90D749CE70050005263
:10169000540400240044025800180258000C025858
:1016A00000100258001402580004025800A0005212
:1016B000274A08B5036893422AD1264B1A68013A93
:1016C0001A60254B2AB9D3F8D42022F40012C3F8AB
:1016D000D420D3F8D4204FF41071204822F4804253
:1016E000C3F8D42005F0A8F843F6B0011C4805F073
:1016F000A3F804211B4805F09FF84FF480611A48B5
:1017000005F09AF804211948BDE8084005F094B89E
:10171000174A93421AD10F4B1A68013A1A600E4BBE
:101720002AB9D3F8D42022F40012C3F8D420D3F875
:10173000D42041F60341094822F40022C3F8D42002
:1017400005F07AF841F21F010748DDE708BD00BF48
:10175000005000525404002400440258001802585B
:10176000000C0258001002580014025800040258DD
:1017700000A0005210B51422B8B0044600210DEBB1
:1017800002002CF00DF9B82200210AA82CF008F96B
:1017900023683C4A93423AD1012200230AA8CDE9AA
:1017A0000A2307F04DFA08B1FFF7EEFC364B4FF471
:1017B000404100243548D3F8F02042F01002C3F82D
:1017C000F020D3F8F02002F010020192019AD3F831
:1017D000E02042F00202C3F8E020D3F8E03003F04A
:1017E00002030293029B0223CDE90513042305A9FA
:1017F0000993CDE9074404F03DFF25202246052149
:1018000004F04CFB252004F07BFB38B010BD204ACF
:101810009342FAD1022200230AA8CDE90A2307F055
:101820000FFA08B1FFF7B0FC174B002405A91948BF
:10183000D3F8E82042F48022C3F8E820D3F8E82067
:1018400002F480220392039AD3F8E02042F00802C7
:10185000C3F8E0204FF44072D3F8E03003F00803FF
:101860000493049B0223CDE905230723CDE9074414
:10187000099304F0FFFE27202246052104F00EFB09
:101880002720C0E70010014000440258000402581D
:1018900000480040000C02580F2810B504468AB0DA
:1018A00002D901200AB010BD01460022362004F002
:1018B000F5FA362004F024FB184B694602A81C6098
:1018C000174BD3F8E82042F01002C3F8E820D3F811
:1018D000E83003F010030193019B07F097F8079B92
:1018E000C3B907F06FF80F4C0F4B236040F2E7339A
:1018F000E3600E4BB0FBF3F001380023606020463C
:101900002361A36008F01AF90028CAD1204607F025
:10191000ADFFC7E707F056F84000E4E748000024B1
:1019200000440258580400240010004040420F00B8
:101930007047FEE7FEE7FEE7FEE77047014808F064
:101940006BB900BFD4010024014808F065B900BF9D
:1019500040010024014807F0D3BF00BF5804002411
:10196000014805F0A7BC00BF20030024014804F093
:10197000F6BD00BFC80300240120704708B52CF055
:1019800019F9162303604FF0FF3008BD08B52CF09D
:1019900011F916230360FEE770B50D4614460E4696
:1019A000731B9C4201DC204670BDAFF3008006F83B
:1019B000010BF5E770B50D4614460E46731B9C42AD
:1019C00001DC204670BD16F8010BAFF30080F5E78F
:1019D0004FF0FF3070474FF4005300204B607047CA
:1019E00001207047002070470B4A0346116810B56C
:1019F00009B90A491160106809490A4C0344091BD6
:101A00008B4206D92CF0D6F80C2303604FF0FF3040
:101A100010BD1360FCE700BFA4040024D06E0124B5
:101A2000000005240010000070470000DFF834D0EB
:101A300004F07AF9002103E00B4B5B58435004316A
:101A40000A480B4B42189A42F6D30A4A02E0002396
:101A500042F8043B084B9A42F9D32CF0B1F8FFF757
:101A600083F8704700000524247203080000002456
:101A70001001002410010024CC6E0124FEE7704701
:101A800008B501F08FF8BDE8084001F013B801F087
:101A90008BB8406870474160704700004FF0E0220B
:101AA000D2F8FC3D43F08073C2F8FC3D054B064A7A
:101AB000D3F8B01F0A43C3F8B02F1A6842F00102EE
:101AC0001A607047001000E055CEACC5521A02EB08
:101AD0005302B2FBF3F07047014B5868704700BFE8
:101AE000001000E0704710B504460C212BF024F9DB
:101AF000204610BD036810B51B69044631B19847F4
:101B0000A26863689B1A0344636010BD9847A06095
:101B1000FBE770471FB5082300206946CDE9023076
:101B2000054B1B880093054B1B88019304F01AF8A2
:101B300005B05DF804FB00BFAE620124B062012471
:101B400010B5044604212BF0F7F8204610BD30B53F
:101B500085B000200D46144601A90390CDE901008F
:101B600004F082F840B14FF0500383F31188BFF3C3
:101B70006F8FBFF34F8FFEE7019820B1029B0120CA
:101B80002B60039B236005B030BD000040B9054BBE
:101B9000012105481A68B2FA82F2520904F0E8BE3F
:101BA000704700BFA80400240000025840B9054B4C
:101BB000012105481A68003A18BF012204F0D8BE76
:101BC000704700BFA80400240000025818B9012182
:101BD000014804F0D2BE70470000025808B538B979
:101BE0000121044804F0BEFE431E5842584108BD7E
:101BF0000020F9E70000025870B5084D00240126C6
:101C0000E0B2FFF7EBFF18B12B68012B18BF2E6075
:101C100001340435052CF3D170BD00BFA8040024A5
:101C2000012380F8781080F87930704700207047E1
:101C300041640039024B18BF01211970704700BF81
:101C4000B362012400207047836B0BB1084618472C
:101C500070474FF6FF707047406803689B691847EC
:101C60007047000038B5044601F0CAF807492368F8
:101C700004F17C052046D3F88C3098472846FFF7BE
:101C80000DFF0123256184F8703038BD000000701D
:101C900008B503680446D3F8803098472368204687
:101CA0009B6F984700F02CF9236820461B6F9847DC
:101CB00001224FF48061084804F05AFE01224FF4DB
:101CC0000041064804F054FE00F01AF9236820464B
:101CD0001B6F9847F8E700BF000C02580018025825
:101CE00010B5044618F08CFF23682046D3F8AC30BA
:101CF000BDE81040184701F04FB801F053B800009C
:101D000070B501F0A7F810490023C1F88430BFF383
:101D10004F8FD1F8803043F6E074C3F3C900C3F3AA
:101D20004E335B0103EA0406024646EA8275013A35
:101D3000C1F87452F9D2203B13F1200FF2D1BFF356
:101D40004F8FBFF36F8F70BD00ED00E001F000B862
:101D500001F0EAB901F0F2B901F004B818F0BCB929
:101D600010B5044688212AF0E7FF204610BD000088
:101D700090F834100D4B10B590F878401A788C42DA
:101D800009D03AB90A490B4A088814881080012200
:101D90000C801A7010BD002AFCD0064A0449148831
:101DA00008880C8010800022F3E700BFAC62012499
:101DB000AA620124A862012470B50D46194635B9FE
:101DC000094B40F2D221094A09482BF02DFBC0E90A
:101DD0000F52003A074B18BF01221A700368BDE882
:101DE0007040D3F88C301847F0E9020828EA02085E
:101DF00076EA0208B262012408B5094B1B888B42BF
:101E000003D8084B1B88934205D9074B9E21074AEC
:101E100007482BF009FB074B1980074B1A8008BDB8
:101E2000A8620124AA620124BBEA02081EEB020890
:101E300076EA0208AE620124B0620124034690F8FB
:101E40007A0018B1586803681B681847704700008B
:101E5000014608B5034B186801B1012118F0EAFEEC
:101E6000012008BDB46201240121002208B5084602
:101E700008F018FD0A4B186028B90A4B28210A4AB5
:101E80000A482BF0D1FA00220421012008F0A9FD14
:101E9000074B186018B9074B2C21034AF0E708BD1F
:101EA000BC0400243CEC020885EC0208B4EC0208F7
:101EB000B8040024FAEC0208024B4FF0FF31186816
:101EC00008F03ABDBC040024014B186808F060BD5E
:101ED000BC040024024B0021186808F02DBD00BF8F
:101EE000BC040024FFF7F0BF0023034803491A464F
:101EF000006808F0B1BD00BFB8040024040000244D
:101F000013B50023074C01A91A46206808F0D5FD37
:101F10004FF0FF33002201A9206808F0CEFD02B087
:101F200010BD00BFB804002403685B6C1847012093
:101F3000704703689B6A184740F2EF307047000013
:101F4000054B4FF080620360044BC3F88820BFF359
:101F50004F8FBFF36F8F704790EE020800E100E0F3
:101F600010B504464FF45A61FFF7EAFF20462AF005
:101F7000E3FE204610BD00000F4B82B0D3F8D42002
:101F800042F01002C3F8D420D3F8D42002F010029B
:101F90000192019ADA6F42F01002DA67DA6F22F0EA
:101FA0001002DA67054B064A1A62064B4FF0806250
:101FB0009A6002B0704700BF00440258C803002472
:101FC0000D22000800E100E008B50A2809D8DFE882
:101FD00000F006100E08080808101010100002206B
:101FE00008BD054B8621054A05482BF01DFA002047
:101FF000F6E70120F4E700BF3CED020857ED0208C8
:10200000A2ED020838B50C46887FFFF7DDFF124BC2
:10201000A58AE28A586342EA054221695A64628BC2
:10202000D963521B1A642568082D0ED19A611A6172
:1020300058620A4A207F42EA0062DA61E2681A6264
:10204000074A5961D9601A6038BD0022D8611A6107
:10205000E2689A63034AF6E70010005209000100A3
:10206000010202000102030008B50B280BD8DFE8CB
:1020700000F00612100A0A0A0A08080808080220D6
:1020800008BD0520FCE7054B6521054A05482BF0F6
:10209000CBF90020F4E70120F2E700BF3CED020895
:1020A000E6ED0208A2ED02082DE9F8434F7F8946CC
:1020B0003846FFF7D9FF99F81E5080462846FFF7AB
:1020C000D3FF06462846FFF77FFFB9F81410B9F88A
:1020D0001A40B9F81820454B641A521A1C649C61C6
:1020E0001A61B9F81620586342EA0142D9F8101073
:1020F0005A64D9F80420D963DA60D9F8004099F815
:102100001C20802C22D00FD8202C66D0402C64D0EC
:10211000042C5CD048EA0260344BAF4240F40030FB
:10212000D86160D0324A3FE0B4F5807F04D0B4F586
:10213000007FEFD12F4800E02F4840EA0262DA61C9
:10214000D9F80C201A625E6259612CE048EA0260FC
:10215000D9F8084040F40030D8615E625961211D11
:10216000D962217841B1012921D0244B4FF48071EB
:10217000234A24482BF058F9DA69618822F47F4217
:10218000013922F0100242EA0122DA610122174BE2
:10219000D96941F02001D961D9698906FCD410219F
:1021A0009960002ABED0184A1A60BDE8F883D96940
:1021B000FF3A608821F47F4118BF0122013821F0E5
:1021C000100141EA002141F01001D961DFE748EA3E
:1021D000026242F40032DA61B5E748EA0262034B78
:1021E00042F40032F7E740F20122DDE7001000522E
:1021F00001020100090002000A00020030EE02089C
:102200004AEE0208A2ED020801020200024B1B681E
:10221000586803685B691847B462012470B50446C6
:102220000A4B0C30002625466022606026726672DA
:1022300045F8203B294618F053FE04F55A63EE603A
:1022400024359D42FBD1204670BD00BF90EE0208B0
:10225000034B1A68D207FCD423229A60704700BF50
:102260000010005230B5104C2568ED07FCD4232532
:102270000904FF2BA5604FF0010541EA05016563E4
:102280006164E0630CD0094922F07F42656241EA53
:102290000363E361064B22626061E060236030BD4E
:1022A000E561044BA263F9E7001000520900010048
:1022B00001000200010003004069704790F84400EB
:1022C0007047036B23B9C06A003818BF01207047FC
:1022D0000120704780687047043010B50C460FC865
:1022E00084E80F0010BD704708B5034A40F2122180
:1022F000024B03482BF098F8D8EE0208DB0B0308DA
:1023000033EF020810B5044648212AF015FD204697
:1023100010BD2DE9F0411E46ADF51E7D436B07460D
:102320000C469046A69D93B3002203A8CDE9013246
:1023300010F01EFC4FF4F4725021249024A80AF0EF
:10234000E4FB4246214624A80BF038FB012124A8D7
:102350000AF0D6FC022324A88DF8D8300AF071FDCB
:10236000419BBDF89482BDF89022984528BF9846BD
:102370002B9B9A4228BF1A4602EB4204479B984582
:1023800009D824A80AF0DEFC24A80AF00BFC0DF5FD
:102390001E7DBDE8F081012201A924A80AF09AFD62
:1023A00030462246796B2E442BF031FCE6E70000E4
:1023B0000A4A02600022C0E90522C0E90722C0E9FA
:1023C0000922C0E90B22C0E90D12C0E90F2280F8F2
:1023D0004420C0E90322C0E9012270470CF2020840
:1023E00010B40C4611461A46036B3BB1036C806B6C
:1023F000E41A20445DF8044B2BF0DABAC06AF8E71F
:10240000036B10B573B1036C826BC91A5318525C1D
:1024100098785C780004DB7840EA0420104340EAB6
:10242000036010BDC36A5858FBE7036B43B1036CEC
:10243000C91A836B5A18585C527840EA02207047D8
:10244000C36A585A7047000070B50446006B0D46C9
:102450001646D8B1E36B934208D209230D4A652191
:102460000D4884F844300D4B2AF0DEFF0368DB682A
:102470009847206B3246A16B03681B69984710B9D7
:102480000D2384F84430A06B256470BDE06A0844D5
:10249000FBE700BF96EF020833EF020883EF020864
:1024A0002DE9F843436904462BB9234BAA21234A5B
:1024B00023482AF0B9FF08228169FFF7C5FFA16907
:1024C00043F2300646F2643704312046FFF798FFA6
:1024D000A3691844A36A00F108029A4206D30123B3
:1024E00000206361236AA361BDE8F8836369093052
:1024F0000822013320F0010120466361A161FFF74A
:10250000A3FFD4F8189020464946FFF78EFF09F143
:10251000020180462046FFF788FF09F104010546C5
:102520002046FFF76DFFB045D2D1BD42D0D1002883
:10253000CED00120D8E700BFD8EF020821F0020872
:1025400033EF02082DE9F04F0546ADF51F7D8B46B0
:102550009046816908221F46FFF776FFAE6928463C
:10256000311DFFF74DFF06F10801024604462846DB
:10257000FFF76AFF6B6B064633B9344B40F2AB1181
:10258000334A34482AF050FF002203A8CDE9013233
:1025900010F0EEFA4FF4F4725021249024A80AF0BF
:1025A000B4FA2246314624A80BF008FA012124A8E7
:1025B0000AF0A6FB022324A88DF8D8300AF041FCCB
:1025C000BBF902A0479B53452DD3BBF8063007EB60
:1025D0004707BBF80260BBF900401E44BBF804206B
:1025E000419B04EB440936B2224407FB0A9A9E42FF
:1025F00012B2D04428BF1E462B9B9A4294BFC4EB14
:102600000204C4EB030404EB4404479BB34210D31D
:1026100024A80AF097FB24A80AF0C4FA01200DF5BB
:102620001F7DBDE8F08F012201A924A80AF052FC09
:10263000C8E7012201A924A80AF04CFC696B4046B6
:1026400022464944B8442BF0E2FADEE754F002088F
:10265000AAF0020833EF02080129036838BF0121FC
:10266000DB6A70B50D4604469847A84204D2236839
:102670002046DB6A984705466B1EE6691022204615
:1026800006EB031606F10801FFF7DEFE06F1100166
:102690002046FFF7B5FE236A043B0344C4E9055313
:1026A00070BD0000002148222DE9F04104468161FF
:1026B00080F84410FFF7C8FEA6690423624A314639
:1026C0002046FFF78DFE40B10323604AF22184F8D3
:1026D00044305F4B5F482AF0A7FE06F1080104234F
:1026E0005D4A2046A161FFF77BFE30B10423574AC3
:1026F000FA2184F84430594BECE706F10C0104232D
:10270000574A2046A161FFF76BFE074638B1052303
:102710004E4A40F2011184F84430524BDAE706F198
:1027200010012046FFF76CFE054620B94E4B40F2E3
:102730000711464ACEE706F1140804234B4A204607
:102740004146FFF74DFE002849D0062384F8443067
:102750000423474A06F118012046FFF741FE0028EE
:102760003FD0072384F844304544424F0C22204692
:102770002946FFF769FE05F1080604233A4620467C
:102780003146FFF72DFE94F84430002848D0002B46
:1027900048D1A36AAB4249D805F10C030435204661
:1027A000A3612946FFF72CFE30442946606220468B
:1027B000FFF726FE0644042220463146FFF744FE7A
:1027C00004232D4A31462046FFF70AFE002838D15F
:1027D0000123E6616361A3692362BDE8F0810127FB
:1027E000B6E7002FC0D006F120012046FFF708FE13
:1027F0004FF47A7306F13001B0FBF3F060602046CD
:10280000FFF7FEFD06F14001A0602046FFF7F8FD4E
:1028100006F14401E0602046FFF7F2FD2061A3E7E6
:10282000002BB9D00A2384F84430D6E7291D20466E
:10283000FFF7E6FD85190C2220462946FFF704FE26
:1028400099E70B23EFE700BF04F1020822F1020829
:1028500009F1020833EF02084FF1020854F10208AF
:102860006CF1020871F1020887F1020893F1020885
:1028700098F102089DF10208A2F10208C0E90A21BC
:1028800000220263FFF70EBF10B50023044608467E
:10289000E3620B6821639B689847A0622046BDE80D
:1028A0001040FFF7FFBEF0B4069FBDF81050BDF812
:1028B000146032B12BB10495CDE90567F0BCFFF788
:1028C00028BDF0BC704700002DE9F04F99464369E0
:1028D00085B004460F4690462BB9294B7721294AEB
:1028E00029482AF0A1FD08228169FFF7ADFDA669FC
:1028F00020463146FFF799FDB11C83462046FFF77D
:1029000094FD311D82462046FFF77AFD06F108014D
:10291000A36A054642189A4226D243F230039B45E9
:1029200017D146F264339A4513D190B10246A161A2
:102930002046FFF789FD0E9B01462A462046CDF82A
:102940000080CDE901933B46FFF7ADFF636901339A
:102950006361A3692B4405B908330133626A23F02C
:1029600001039342A36109D1012301206361236A1A
:10297000A36180F0010005B0BDE8F08F0020F8E70A
:10298000D8EF0208A7F1020833EF020801207047D0
:102990000C2070470C2303FB0100083070470C2308
:1029A00003FB0100083070470120704740F2D4500B
:1029B000704740F2D45303FB01000830704740F2E7
:1029C000D45303FB010008307047012070471020EA
:1029D000704700EB01100830704700EB0110083021
:1029E0007047084600F0F0BE034B10B50446036084
:1029F00017F0C8F8204610BDB4F2020810B504461E
:102A0000FFF7F2FF142120462AF096F9204610BD68
:102A1000034B10B50446036017F0B4F8204610BD10
:102A200080F2020810B50446FFF7F2FF40F2DC51D5
:102A300020462AF081F9204610BD0000034B10B556
:102A40000446036017F09EF8204610BD4CF20208C1
:102A500010B50446FFF7F2FF182120462AF06CF962
:102A6000204610BD084B10B50446036000F5C16058
:102A7000FFF7BAFF04F12C00FFF7CAFF04F11400BE
:102A8000FFF7DCFF204610BDE8F2020808B5024857
:102A9000FFF7E8FF08BD00BF7813002410B5044617
:102AA000FFF7E0FF40F27C7120462AF045F920460E
:102AB00010BD00002DE9F34100F000FD00240546A3
:102AC00000F000FD2346014622462846009420F0EF
:102AD00031F9274B274A2046274D1A6001F016FD91
:102AE000264B274A27489A601FF0D0FF2B68BFF378
:102AF0005B8FDB0735D428462AF020F988B3224CB7
:102B0000224B04F5C46604F1140004F12C0804F50A
:102B1000C16723606060C4F80880E760266117F031
:102B200033F81B4B4046636117F02EF8194B3846BB
:102B3000E36217F029F8184B04F21C60C4F8083659
:102B400001F06CFD224604F21C61304601F05CFD90
:102B5000304600F039FE11482AF084FC28462AF05D
:102B6000F9F80F4802B0BDE8F041FFF77BB800BFAD
:102B70001863012448050024741300246805002408
:102B80004C0500240800002478130024E8F2020811
:102B90004CF2020880F20208B4F202088D2A000802
:102BA000C0040024704700000148FFF771B800BF5F
:102BB000C004002470B5274E274B284C3046284DC2
:102BC0002360FFF72BFB284623F068F925481DF00A
:102BD000CDFD254B00224FF4807124481A8683F8DE
:102BE00058205A6683F87020DC60C3E9121220492D
:102BF000C3E91A121F490B604FF4F07101801E489F
:102C000001804FF488711D4801801D4801801D49D5
:102C1000C3E90422C3E90622C3E90822C3E90A2260
:102C2000C3E90E22C3E91022C3E91422C3E9172223
:102C3000C3E901650A701449C3F8802083F8342081
:102C400019605A671149C3F88420114A9967DA67F5
:102C500070BD00BFD0050024E0E902087013002415
:102C6000680500244C050024C0040024A862012447
:102C700001000001B4620124AE620124AA620124B1
:102C8000B0620124AC6201246CEB02080000010177
:102C9000B8E902080148FFF753B900BFD005002486
:102CA0000020704781807047C18070470181704764
:102CB000418170477047704770477047704710B444
:102CC000C4880368121B84885B6D091B12B25DF80F
:102CD000044B09B218474FF6FF7383814FF0FF335F
:102CE00003621368C36110607047002070478B88CF
:102CF000838001207047704780F82610704790F855
:102D000026007047002210B5B1F90840B1F90A1049
:102D1000028042808480C18010BD002202804280F7
:102D20008280C28070470177704780ED080A704743
:102D300080F82410704780F82510704701207047F4
:102D4000983070478C30704784307047704700006F
:102D5000034B902283F85A2383F85823704700BF0F
:102D600000E100E0094A0A49D3680A48C3F30A03AC
:102D7000013B9BB20B801169C1F30A01013901804B
:102D80001364536B43F0010353637047001000500A
:102D9000F61A0024F41A0024014BD3F8AC00704753
:102DA00000100050024B0122C3F8AC105A62704769
:102DB000001000500163C0E90D2170477047704753
:102DC000704700EB8100114640680368DB681847D4
:102DD00080F83C10704710B50446482129F0ACFF3C
:102DE000204610BD10B504462C2129F0A5FF204631
:102DF00010BD10B50446BC2129F09EFF204610BD31
:102E000038B5044617F0BDF923685D6E1CF080FBF1
:102E100001462046A8472368074A2046D3F8885031
:102E200000230649A847064B064A5A60064A1A6319
:102E30009A63064A5A6338BD00F40B7000FA0570B5
:102E4000B81B0024001C002400EE117000FA0500DD
:102E500017F07EB917F046B917F0A7BA38B504468F
:102E60000D46406C4FF0FF3107F0DAFC606C07F064
:102E7000FAFC242303FB0545002385F8283094F849
:102E800028300BB9236BA36338BD90F8252012B10D
:102E900003685B6918477047124A5369DB0370B5D2
:102EA0001ED50023C2F88430BFF34F8FD2F8803094
:102EB00043F6E074C3F3C900C3F34E335B0103EA86
:102EC0000406014646EA81750139C2F87452F9D206
:102ED000203B13F1200FF2D1BFF34F8FBFF36F8F61
:102EE00070BD00BF00ED00E008B531B1044B4FF4F8
:102EF000B871044A04482AF097FA90F8290008BDEE
:102F0000F4F2020808F3020892F4020810B531B195
:102F1000064B4FF4B571064A06482AF085FA406818
:102F200011460368BDE810401B6B1847F4F2020815
:102F3000D5F4020892F4020808B529B1034B7921AF
:102F4000034A04482AF070FAC06808BDF4F2020887
:102F500083F6020892F4020810B5044629B1194B11
:102F6000A221194A19482AF05FFA052A15D8DFE884
:102F700002F0031115171C22406803681B6998476B
:102F800058B1012384F8293084F82C300023C4E997
:102F9000043302E0002380F8293010BD0362F5E716
:102FA0000362012380F82A30F0E7002380F82930FB
:102FB00001230362F1E7003B18BF012380F82D30A5
:102FC000EBE700BFF4F2020838F8020892F40208B6
:102FD00010B50C4611461A462CB1064B9021064AF4
:102FE00006482AF021FAC46040680368BDE8104032
:102FF0009B681847F4F202080CFA020892F40208DF
:1030000008B529B1054B8221054A06482AF00CFA79
:10301000C0E90411C0E9063208BD00BFF4F202089D
:10302000E7FB020892F4020890F83D3010B5044620
:1030300053B14FF0FF31406C07F0F2FB002384F8EE
:103040003D30012384F83E3010BD90F825201AB1A0
:1030500090F8242002B118607047000010B50446B3
:10306000104629B1134BD021134A14482AF0DCF939
:1030700094F8293033B1124B1B6893F86B206369C5
:103080001344636194F82B300BB9012010BDA36881
:10309000036303685B699847002394F82C0084F865
:1030A0002B300028F1D194F82D30002BEED184F88C
:1030B0002900EBE7F4F20208A3FD020892F40208EB
:1030C000B462012410B5174C17F04EF894F829306B
:1030D00013B994F82A30ABB1E169D4E9053253430E
:1030E00022694A4393420DD394F83C0038B19B1AAD
:1030F000B3FBF1F2994298BF02F1FF326262012301
:1031000084F82E300123206C84F83D3007F040FC19
:1031100094F83E302BB1606C07F0A5FB002384F8D7
:103120003E3010BDB81B0024034B4FF080629A6004
:103130004FF080729A60704700E100E0084B4FF05A
:103140008062C3F88820BFF34F8FBFF36F8F4FF0BB
:103150008072C3F88820BFF34F8FBFF36F8F704723
:1031600000E100E0F8B5034690F82800D8B94FF424
:1031700080729E6B0125D8609A8506F5BF22186182
:1031800002F5007258619861D861186258629D62B8
:1031900083F82E00D3E90C473C44A2420AD90B4BDA
:1031A00052210B4A03E00B4B40F2C5110A4A0B486F
:1031B0002AF03AF99E609A634FF4F07381F8345024
:1031C000CB864FF4887308630B87F8BDFB000308B8
:1031D0003601030844FF020874FF020892F4020853
:1031E000002370B5124E04468380124B036033688F
:1031F00093F858200AB1D86C00B998680368DB6A64
:103200009847431E5D425D413368D86C30B1036816
:10321000DB6A9847012808BF45F001052DB9064B28
:103220002721064A06482AF0FFF8204670BD00BF55
:10323000B4620124DC030308D9020308370303083E
:103240007003030870B5244E3568BFF35B8F15F02B
:1032500001053FD1304629F071FD00283AD01F4CBE
:103260001F4B04F134002561E584A562A585C4E9FE
:103270000035C4E902551DF0D8FC04F1580019F0DE
:10328000B5F9184B2046A365174B40F8843BFFF770
:10329000A7FF164B1648C4F884302433C4F8905066
:1032A000C4F88C306423C4F89C50C4F8A850C4E916
:1032B00028350023C4F8AC30C4F8B030C4F8B430BA
:1032C000C4F8B8300B4BC4F898302AF0CBF830462D
:1032D00029F040FD014870BDF81A0024FC1A0024B2
:1032E0006C300308FC03030874040308B8300308B7
:1032F0004D2D0008F030030810B5144C236823B39B
:10330000134B144A1B6C11888B4213D1124B198832
:1033100004F05AF8226892F86A30013382F86A3071
:10332000FEF7E2FD206817F06BFC0020BDE81040BE
:10333000FEF72CBC04F048F8206803681B6A984725
:103340000020BDE81040FEF731BC10BDB46201247E
:1033500000100050F61A0024F41A00242DE9F74357
:10336000044601264FF4B4674FF0FF31206C07F09C
:10337000E3FA4FF0FF31606C07F052FA94F82E3008
:1033800043B36568D4F820802B6884F82B60B8F1CB
:10339000000F23D05B6A41462846984700232362EA
:1033A0002B684FF4F07200972846D3F814804FF43E
:1033B0008873A168C047236984F82C000133236116
:1033C000F0B12B6828469B6A984701380023E060DB
:1033D00084F82E30606C07F046FAC5E7626A002A6E
:1033E000DED02846D3E909939847616A014428460C
:1033F000C8472369626AC4F8248013442361CFE775
:103400000120E3E7014808B5FFF7A8FFB81B002437
:1034100038B5154900251548FEF7CAFF144C154B61
:103420002A462946012023604FF48073A563A387B1
:10343000A38584F83E5084F82E50C4E90C55C4E9A5
:103440001055C4E90155C4E90355C4E90555C4E95B
:103450000755C4E9095507F025FA2064284607F006
:10346000AAF9606438BD00BF481C0024001C002479
:10347000B81B0024C0040308704708B5042914D8F9
:10348000DFE801F003070B0F0F0001F08BF8006875
:1034900008BD01F087F84068FAE701F083F880681A
:1034A000F6E701F07FF8C068F2E70020F0E710B51A
:1034B0000446042129F040FC204610BD0048704716
:1034C000100503080420704713B5002451B10368A8
:1034D00001AA01948DF803409C680DF10303A047F5
:1034E00002B010BD0846FBE7C0897047008A7047EC
:1034F000C088704780887047807A00F07F007047EE
:10350000807AC00970470020704700009FED010AD3
:10351000704700BF00000000704710B50446082146
:1035200029F00AFC204610BD7047704700F59873DB
:103530000868496803C37047704770474160704727
:1035400070470000064BC0F84801C0F84C3100231A
:10355000C0F8503100F5A273C0F84031704700BF89
:10356000053600080123037270477047704710B496
:1035700041680346C2689B68541001EB6200D207A1
:1035800048BF0A595DF8044B48BFD3581847034653
:10359000406830B19A681AB9D86800F001007047E5
:1035A0000120704710B504460C2129F0C5FB2046C8
:1035B00010BD10B50446102129F0BEFB204610BDF9
:1035C00010B504464FF4AE7129F0B6FB204610BD8D
:1035D00010B51BF09DFF0368BDE81040DB6B18477A
:1035E00010B50446D0F8400158B10368DB6898472D
:1035F00038B1D4F8400103689B6898470023C4F8A9
:10360000403110BD2DE9F14FD0E9556A0746B06849
:1036100003681B6A984740F2D353984205D8444B3D
:10362000A321444A444829F0FFFE706803681B6ADE
:1036300098470F2803D8414BA4213E4AF2E7F0688F
:1036400003681B6A98470B2803D83D4BA521394ACC
:10365000E8E7DFF8F4901BF05BFF04301BF07DFF20
:10366000D9F8000010B10368DB689847D9F800006A
:1036700010B103681B689847DFF8D080D8F80000C5
:1036800010B103685B699847D7F83C0110B1036833
:103690005B689847D8F8000010B103681B6898472A
:1036A000D7F83C0110B103689B689847F068002187
:1036B0004FF0000B03685B6A9847224B0446C0F842
:1036C00004B080F808B059460360B06803685B6ACC
:1036D0009847054600F0D6FF7068594603685B6A54
:1036E00098470646294600F0ABFF331DC7F83C61FA
:1036F0002846C9F80040C8F80050CAF800302B68C6
:10370000C6F808A0DB68EE639847336830461B684C
:103710009847214628461DF0EBFE236820461B698A
:103720009847236820465B6901B0BDE8F04F184711
:1037300070050308FE050308D006030817070308F1
:10374000BA070308D4080308FC620124F8620124C4
:10375000044B1B6893F858200AB1D86C00B99868DC
:10376000704700BFB4620124F8B5044617460E4600
:103770001BF094FF104B00251C6029460F4B236063
:103780000F4BC4E951350F4B1868C4E95355036812
:10379000C4E94F559B68C4E955769847284600F020
:1037A000B5FEFFF7D5FF23F060FCFFF7D1FF23F054
:1037B000D3FC2046F8BD00BF08630124800803083D
:1037C00068080308B4620124064BC0F84801C0F839
:1037D0004C310023C0F8503100F5A273C0F84031DD
:1037E000704700BF05360008406A7047806A70471E
:1037F00070478B88C069DB0A0A6850F823001044C0
:10380000704710B50446BAB1107B68B1537BD27AC9
:103810001B0203F4E0631A43236A03EB82031A8852
:103820008A4202D193F9020010BD05D80138043351
:1038300080B20028F3D1F7E70020F5E710B5044681
:103840002C2129F079FA204610BD000030B58BB04C
:103850000446BDF860500895BDF85C5007959DF88A
:10386000505006959DF84C5005959DF8485004958C
:103870009DF8445003959DF8405002959DF83C50AA
:103880000195BDF8385000951DF08CFA064B204686
:103890002360159BE361169B2362199B63621A9B4D
:1038A000A3620BB030BD00BFF80803087047704733
:1038B00070477047704730B585B003680446018192
:1038C0006D460146D3F884303C342846984795E845
:1038D000070084E8070005B030BD30B585B0036847
:1038E000044641816D460146D3F884303C34284675
:1038F000984795E8070084E8070005B030BD00222E
:10390000028042808280C280704780F83610704703
:10391000036870B504461B6B15469847236820461C
:1039200029465B6EBDE870401847002070470022B2
:103930004FF0FF318260C0E900217047806C704712
:1039400070477047704770477047704770477047BF
:10395000704770477047704770470368DB6A1847C5
:103960007047704730B444680346C2689B6855107E
:1039700004EB6200D20748BF625930BC48BFD3583D
:1039800018470346406830B19A681AB9D86800F001
:10399000010070470120704710B504464C2129F002
:1039A000CBF9204610BD10B50446102129F0C4F90A
:1039B000204610BD10B504464FF4B86129F0BCF99B
:1039C000204610BD38B500F1980304460D469942D3
:1039D00002D103681B6B984704F1E0039D4203D1B9
:1039E000236820465B6B984704F594739D4203D18E
:1039F000236820469B6B984704F5B8739D4203D11A
:103A000023682046DB6B984704F5DC739D4203D1A5
:103A1000236820461B6C984704F500739D4203D130
:103A2000236820465B6C984704F512739D4203D1CE
:103A3000236820469B6C984704F524739D4203D16C
:103A400023682046DB6C984704F536739D4203D10A
:103A5000236820461B6D984704F548739D4203D1A7
:103A6000236820465B6D984704F55A739D420AD13E
:103A7000236820469B6D9847002304F5A56084F8D1
:103A800050351CF0BEFD04F56C739D420CD12368CB
:103A90002046DB6D9847FF2304F5A56084F8503578
:103AA000BDE838401CF0ADBD38BD002300F5A56071
:103AB00080F828301CF0A5BD08B5FFF7E6F908BD71
:103AC000036870B55E6B0446114B8DB21B682BB951
:103AD000104B6C21104A114829F0A6FC1049828D28
:103AE0000988914203D80F4B6D210B4AF3E713F875
:103AF00012200D4B1B6853F8220003681B6B98477C
:103B0000291A3346204609B2BDE87040184700BF65
:103B10000C630124580903089A090308D50903080E
:103B2000106301241C0A030814630124036870B5A0
:103B300004461B6B154698472368204629465B6B55
:103B4000BDE87040184770B504461D46BDF91060C9
:103B5000FFF7ECFF2368294620469B6B98472368B4
:103B600031462046DB6BBDE8704018470022C0E9B3
:103B70000122C0E90322C0E90522C0E907224FF46F
:103B800080728284014A0260704700BF640A0308A1
:103B900038B504460D462622002129F001FF2046B3
:103BA000FFF7E4FF064B2046294623602B88E38479
:103BB000FF2384F8283018F0D0FF204638BD00BF1E
:103BC000F0310308F8B5194B0646018F1B888B426C
:103BD0002AD9174B1B682BB9164B6C21164A17486C
:103BE00029F022FC13F81120154B1B6853F82250C2
:103BF000144B186800F0C6FC2B68074628469B6BE0
:103C000098472B68044639469B6C2846984714FB16
:103C100000F42B683946A4B228465B6A98472318FB
:103C20001BB2A6F84630F8BD0023FAE71063012462
:103C30000C630124580903089A090308D5090308ED
:103C4000146301241863012410B5044626220021C0
:103C500029F0A6FE2046FFF789FF0A4B4FF47F02AA
:103C60002046A3624FF6FF73A3850023C4E90C32FC
:103C7000054A238722604FF0FF32E363A364C4E95F
:103C8000102310BD68050308CC0A03082DE9F04F86
:103C9000044695B000251DF07FFA2646DC4B26220F
:103CA0002946E56304F16C0846F8403B304629F0AC
:103CB00077FE3046FFF75AFFD64B04F1980B4FF6CC
:103CC000FF772364FF2312A904F1E00A84F8663029
:103CD0004046A56604F59479ADF84870FFF758FFA3
:103CE000584619F07BF8504619F078F8484619F014
:103CF00075F804F5B8731846029319F06FF804F5D7
:103D0000DC731846039319F069F804F5007318463C
:103D1000049319F063F804F512731846059319F02B
:103D20005DF804F524731846069319F057F804F566
:103D300036731846079319F051F804F5487318467E
:103D4000089319F04BF804F55A731846099319F0C3
:103D500045F804F56C7318460A9319F03FF804F51A
:103D60007E7318460B93FFF76FFF04F24443184627
:103D70000C93FFF769FF04F5926318460D93FFF764
:103D800063FF04F2DC4318460E93FFF75DFF04F572
:103D9000A56312A9ADF8487018460F93FFF7F8FE17
:103DA0009D4B2A462946C4F8B03530469B4B271D0B
:103DB000C4F8B445C4F8B8354FF48873C4F8BC559A
:103DC00000934FF4F073FFF7BEFE4FF07F43314690
:103DD0003846A3664FF0FF3615F0EAFE2A4629461C
:103DE0004046FFF7A3FE4FF0030312A94046ADF88B
:103DF000483018F0B2FE4146384615F0D9FE584614
:103E0000332240F22111FFF791FE12AA11A9584660
:103E1000ADF8445004F5B668ADF8485018F06BFDA5
:103E20000F235846A4F8D030FFF7CCFE5946384649
:103E3000C4F8C080C4E9356615F0BAFE5046332296
:103E40004FF4AC71FFF772FE12AA11A95046ADF8FB
:103E50004450ADF8485018F04EFD0E235046A4F8DB
:103E60001831FFF7AFFE51463846C4F808814FF0CD
:103E70002F0AC4E9476615F09BFE484633224FF4EB
:103E8000C971FFF753FE12AA11A94846ADF8445074
:103E9000ADF8485018F02FFD0D234846A4F86031C6
:103EA000FFF790FE49463846C4F850814FF00209AA
:103EB000C4E9596615F07CFE0298642240F2211193
:103EC000FFF734FE12AA11A90298ADF84450ADF8DC
:103ED000485018F010FD0C230298A4F8A831FFF701
:103EE00071FE02993846C4F89881C4E96B6615F0F2
:103EF0005FFE039864224FF4AC71FFF717FE12AA1D
:103F000011A90398ADF84450ADF8485018F0F3FCEF
:103F10000B230398A4F8F031FFF754FE03993846B9
:103F2000C4F8E081C4E97D6615F042FE049864227D
:103F30004FF4C971FFF7FAFD12AA11A90498ADF860
:103F40004450ADF8485018F0D6FC0A230498A4F861
:103F50003832FFF737FE04993846C4F82882C4E99E
:103F60008F6615F025FE05989A2240F22111FFF781
:103F7000DDFD12AA11A90598ADF84450ADF84850DE
:103F800018F0B9FC09230598A4F88032FFF71AFE4F
:103F900005993846C4F87082C4E9A16615F008FE98
:103FA00006989A224FF4AC71FFF7C0FD12AA11A92E
:103FB0000698ADF84450ADF8485018F09CFC082322
:103FC0000698A4F8C832FFF7FDFD06993846C4F8F4
:103FD000B882C4E9B36615F0EBFD07989A224FF456
:103FE000C971FFF7A3FD12AA11A90798ADF84450B3
:103FF000ADF8485018F07FFC07230798A4F8103359
:10400000FFF7E0FD07993846C4F8008308E000BFD9
:10401000740B0308883103085C0B0308C5390008DA
:10402000C4E9C56615F0C4FD0898CE224FF4AC7102
:10403000FFF77CFD12AA11A90898ADF84450ADF81D
:10404000485018F058FC06230898A4F85833FFF796
:10405000B9FD08993846C4F84883C4E9D76615F015
:10406000A7FD0998CE2240F22111FFF75FFD12AAA9
:1040700011A90998ADF84450ADF8485018F03BFC30
:1040800004230998A4F8A033FFF79CFD099938464A
:10409000C4F89083C4E9E96615F08AFD0A98CE2237
:1040A0004FF4C971FFF742FD12AA11A90A98ADF8A1
:1040B0004490ADF8489018F01EFC05230A98A4F827
:1040C000E833FFF77FFD0A993846C4F8D883DFF854
:1040D0006881C4E9FB6615F06BFD0B98CB23402289
:1040E0002521CDF800A0FFF72EFD04F254534FF028
:1040F0007F4212A9C4F840344FF00303C4F82824C7
:104100000B98A4F82C54C4F83454C4F83864C4F898
:104110003C54A4F85455ADF84C30CDF8488018F014
:104120008DFB0B99384615F043FD83220C982C2308
:104130003421CDF800A0FFF706FD4FF07F4312A910
:104140000C98C4F8743404F27253A4F87854C4F888
:104150008C34C4F88054C4F88464C4F88854A4F837
:104160007255ADF84C904FF00109CDF8488018F029
:1041700065FB0C99384615F01BFD83220D982C2306
:104180007421CDF800A0FFF7DEFC4FF07F4312A9A9
:104190000D98C4F8C03404F28653A4F8C454C4F88B
:1041A000D834C4F8CC54C4F8D064C4F8D454A4F8B7
:1041B0008655CDF84880ADF84C9018F03FFB0D992E
:1041C000384615F0F5FC83220E982C23B421CDF847
:1041D00000A0FFF7B8FC4FF07F4312A90E98C4F877
:1041E0000C3504F29A53A4F81055C4F82435C4F8D9
:1041F0001855C4F81C65C4F82055A4F89A55CDF894
:104200004880ADF84C5018F019FB0E99384615F05F
:10421000CFFCBE220F985E21FFF788FC12A90F98F1
:10422000ADF8489018F099FC38460F9915F0C0FC8D
:10423000204615B0BDE8F08F680503087047000000
:1042400030B5174D8FB02C68BFF35B8F14F00104AD
:1042500022D1284628F072FDF0B13F2301221149F6
:104260000993114B11480893114B0A940594CDE919
:1042700006430423CDE903321E235F220093252346
:10428000CDE90B44CDE90144FFF7E0FA094829F0F4
:10429000E9F8284628F05EFD04480FB030BD00BFA5
:1042A000C82300242C6B030844710308CC2300248A
:1042B000547103083D4200087047000030B5164DA8
:1042C0008FB02C68BFF35B8F14F0010420D1284617
:1042D00028F034FDE0B13F23012210490993104B2F
:1042E00010480893104B0A940594CDE90643042323
:1042F000CDE903320A23CDE90B440093CDE9014413
:10430000FFF7A4FA094829F0ADF8284628F022FD65
:1043100004480FB030BD00BFF823002460700308CC
:1043200048710308FC23002458710308B9420008AF
:104330007047000030B5164D8FB02C68BFF35B8F0F
:1043400014F0010421D1284628F0F8FCE8B13F23FD
:10435000012210490993104B10480893104B0A94FE
:104360000594CDE906430423CDE9033214230E223C
:104370000093CDE90B44CDE90144FFF767FA094802
:1043800029F070F8284628F0E5FC04480FB030BD4D
:1043900028240024707003084C7103082C24002486
:1043A0005C710308314300087047000030B5164DBA
:1043B0008FB02C68BFF35B8F14F0010420D1284626
:1043C00028F0BCFCE0B13F23012210490993104BB7
:1043D00010480893104B0A940594CDE90643042332
:1043E000CDE903322823CDE90B440093CDE9014404
:1043F000FFF72CFA094829F035F8284628F0AAFCDE
:1044000004480FB030BD00BF5824002434710308A5
:10441000507103085C24002460710308A94300085C
:1044200000207047002070470EB403B503AB002195
:1044300053F8042B01931BF0B9FF02B05DF804EBB5
:1044400003B070470CB407B504AB53F8042B0193C9
:104450001BF0ACFF03B05DF804EB02B07047000046
:10446000436C10B5044673B3038F2BB9184BC521A9
:10447000184A194828F0D8FFC38E00EB43035B8C21
:104480000BB31DF04DFD238F012B03D8134BCB2114
:10449000134AEEE7E28E40F63F10531C9BB2092B05
:1044A000194688BFA3F10A0104EB4101498C8142FE
:1044B00009D10A2B04EB420228BF0023508C04EBE5
:1044C0004303588451842046BDE810401DF02ABCA7
:1044D000D40B0308DD0B0308880C0308D20C030877
:1044E000E00C03081DF0E7BB10B586B002AC84E811
:1044F00006001A460AAB214605930193099B0093D7
:10450000089B1AF0A3FB06B010BD000038B518BB1D
:10451000124B13481C681349B4B12268224402604C
:10452000626822440A60A26814440F4B00221A8079
:1045300000F038F8054600F033F80C4B1C600C4BCB
:104540001D600C4B188007E00B4B03600B4B0B609E
:104550000B4B1C68002CE8D138BD00BF942400240C
:104560008C24002488240024902400240C6301243B
:104570001463012410630124A47103086471030807
:10458000D8710308044B1B6853F82100034B1B68C8
:1045900003EB4000704700BF882400248C240024D3
:1045A00010207047004870479824002410B5074C2D
:1045B000FFF7C0FE2060FFF7F9FE6060FFF77EFEA8
:1045C000A060FFF73DFEE06010BD00BF982400240E
:1045D00010B5002404600C6014601C6010BD7047AE
:1045E00010B504464FF4AE7128F0A6FB204610BD6E
:1045F00010B50446D0F8580100F013F82046BDE885
:1046000010401BF007B8000010B50446FFF7ACF8E7
:10461000014B2046236010BDBC0D03080022026040
:1046200070477047704704387047704710B50446AC
:10463000102128F081FB204610BDA0F10400F5E711
:104640000022C1608260024A0260183242607047F4
:10465000100E030870470000034B10B504460360BA
:10466000FFF77AF9204610BD500E030810B5044636
:10467000FFF7F2FF40F2D451204628F05DFB2046C0
:1046800010BD000010B50446FFF700FB0A4B0122E5
:104690000F2104F2545023600023C4F8CC25C4F841
:1046A000C035064AC4F8C435C4F8C835C4F8D03596
:1046B0001EF0DEF9204610BD500E0308300E030830
:1046C000FFF74BB9D0F8CC250B46012A10B50446AC
:1046D00018D10222C0F8C0150A2100F27250C0F8A9
:1046E0005A20144A1EF0C4F904F244401BF089FF1A
:1046F00004F592601BF085FF04F2DC40BDE8104039
:104700001BF07FBF022A09D10322C4F8C41500F2AE
:1047100086500A21C0F84620064AE3E7032AE3D17F
:104720000422C4F8C81500F29A500A21C0F83220B9
:10473000004AD7E7A62103080121FFF7C3BF0221E2
:10474000FFF7C0BF0321FFF7BDBF0421FFF7BABFCA
:104750000521FFF7B7BF0621FFF7B4BF0721FFF719
:10476000B1BF0821FFF7AEBF0921FFF7ABBF0021A2
:10477000FFF7A8BFD0F8CC35042B10B5044628D1DC
:104780000023032200F29A50C0F8322019461E4A34
:10479000C0F82E301EF06CF904F244401BF031FFDB
:1047A00004F592601BF02DFF04F2DC401BF029FFA2
:1047B000D4F8D03563B1154A0F2104F254501EF0DD
:1047C00057F904F57E701BF01CFF0123C4F8D035A7
:1047D00010BD032B0AD10023022200F28650C0F83C
:1047E00046201946C0F83E30074AD3E7022BD3D102
:1047F0000023012200F27250C0F85A201946C0F876
:104800004E30014AC6E700BFA6210308300E030858
:10481000D0F8C0350F2103EB830303EB8302D0F8FC
:10482000C43503EB83035B0003EB8203D0F8C82598
:1048300013440A4A10B513800123094A0446C0F8FC
:10484000D03500F254501360064A1EF011F904F5F9
:104850007E70BDE810401BF0D4BE00BF30010024C4
:104860002C0100243C0E030840F201134FF4F072B7
:1048700000200B8005238B704FF48873C1E901235E
:10488000704790F82430012B04BF002380F82430B7
:10489000002070470020704710B404690089A446C6
:1048A0005DF8044B604710B4C4680089A4465DF805
:1048B000044B604770B500F118050E46097828468C
:1048C00000F0F4F804463179284600F0FBF804447F
:1048D000317A284600F002F90444317B284600F082
:1048E00009F90444317C284600F010F90444317D74
:1048F000284600F017F9C44214BF4FF0FF300020E3
:1049000070BD183000F026B937B500F118050C4617
:1049100001A9284600F0BDF808BB9DF80430052B1E
:1049200098BF184604232060032128460DEB03029C
:1049300000F09CF8B0B99DF804309DF805201B02EA
:1049400003F4706313439DF8072063609DF80630FD
:104950001B0203F470631343A36003B030BD4FF038
:10496000FF30DFE74FF0FF30F7E7183000F08CB88A
:104970000121183000F0E2B80021183000F0DEB854
:1049800010B590F8243004466BB903689847204668
:10499000FFF7F2FF00384FF0010318BF012084F841
:1049A0002430404210BD0020FCE70020704770B565
:1049B00000F1180588B00C462846694600F069F8F1
:1049C00090BB9DF80030052B98BF184620601E2331
:1049D0006A460321284600F049F840BB21466D464F
:1049E00014342A78063515F8056C1302920903F47D
:1049F0007063334315F8036C41F8043F8C4215F89B
:104A0000043CCA634FEA032303F4706343EA0603DA
:104A10004B6115F8023C8B6215F8013C4FEA131309
:104A20000B65DED108B070BD4FF0FF30CEE74FF020
:104A3000FF30F7E790B14A680B6842600A8903606B
:104A40000281CA68C2600A6902614A690062426101
:104A5000044AC261044A826103B118474FF0FF3033
:104A6000704700BF99480008A748000810B4D0E973
:104A70000140A4465DF8044B604710B404688068A8
:104A8000A4465DF8044B604701230A461946FFF728
:104A9000EDBF10B50A460C4601230221FFF7E6FFE1
:104AA00018B9237803F00F03237010BD07B5012355
:104AB0008DF807100DF107029121FFF7DEFF03B01B
:104AC0005DF804FB07B501238DF807100DF107020F
:104AD0009221FFF7D2FF03B05DF804FB07B5012375
:104AE0008DF807100DF107029321FFF7C6FF03B001
:104AF0005DF804FB07B501238DF807100DF10702DF
:104B00009421FFF7BAFF03B05DF804FB07B501235A
:104B10008DF807100DF107029521FFF7AEFF03B0E6
:104B20005DF804FB07B501238DF807100DF10702AE
:104B30009621FFF7A2FF03B05DF804FB07B5012340
:104B40008DF807100DF10702A421FFF796FF03B0BF
:104B50005DF804FB0A460123A821FFF787BF4FF049
:104B600080624FF480334FF48071C0E900234FF42A
:104B700080524FF48063C0E902324FF48043C0E9B1
:104B8000043283614FF48023C0E90713002070478B
:104B900070B59AB00E4605460021144606A850226C
:104BA00028F0FEFE1422002101A828F0F9FE2EB9FB
:104BB000012C50D14FF0FF301AB070BD0423621E9B
:104BC0000993102053425341002E4FEAC3020B9227
:104BD00014BF012200224FEA02114FEA82220A91F9
:104BE00040F2FA510D924FEAC32208BF05210F92FD
:104BF0004FF44052089106A90E920CBF4FF08072FC
:104C00004FF0806214924FEAC3624FEA43731692E8
:104C100014BF052200221893012C4FF001031792B4
:104C200002930CBF022201224FF48003159241F23D
:104C30008832CDE90430284602F0ADFD0028B9D114
:104C400041F2883201A9284602F0EAFE003818BF76
:104C500001204042B0E70123B1E770B596B00C46A1
:104C6000064615460021502202A828F099FE00238E
:104C7000012CCDE9003305D1002D53D14FF0FF3089
:104C800016B070BD002C14BF042301230122002C98
:104C9000059314BF1346002302924FEA03130693B1
:104CA00042D1002D0CBF0B230C23002C049341F2A6
:104CB000883202A90CBF4FF480734FF48063002D3B
:104CC000304609930CBF4FF400534FF44053002C6F
:104CD0000A930CBF4FF080734FF0806310930CBFAA
:104CE00008230623139302F056FD0028C6D10223A1
:104CF0000293E4B9002D18BF12230493002341F25C
:104D0000883202A93046139302F045FD0028B5D140
:104D100000906946304602F0D3FE003818BF0120EB
:104D20004042ADE70423B1E74EF61343BDE741F23D
:104D3000ED23E2E710B596B004464C22002103A80B
:104D400028F02EFE00234FF0080C4FF4006141F2D2
:104D500088322046CDE900330123029304230593D2
:104D60001023CDE9063C4EF611634FF0006C04931E
:104D70004FF4806309934FF44053CDE90A314FF06B
:104D8000806302A910930623CDE912C34FF00053AC
:104D9000149302F000FD18B14FF0FF3016B010BDB3
:104DA000022341F2883202A9029341F2ED23CDE9B8
:104DB00013002046049302F0EEFC0028ECD1009092
:104DC0006946204602F07CFE003818BF01204042B0
:104DD000E4E72DE9F0419AB00F460546002116465A
:104DE00006A8502228F0DCFD1422002101A828F09A
:104DF000D7FD37B9012E63D14FF0FF301AB0BDE8AF
:104E0000F0810423711E099341F2883228464C42F6
:104E10004C41002F06A94FEAC40314BF4FF001080C
:104E20004FF000080B934FEA08130A9340F2F9631E
:104E300008BF0623089302F0AEFC0028DCD1002F47
:104E400040F2FA530C9041F2883208BF052306A9BC
:104E5000284608934FEA88230D934FEAC4230F9303
:104E60004FF440530E930CBF4FF080734FF08063AC
:104E700014934FEAC4634FEA4474169314BF052396
:104E80000023012E189417930CBF022301231593BE
:104E900002F081FC0028AFD102231022039001A967
:104EA0002846CDE901334FF48003CDE9043241F2C5
:104EB000883202F0B5FD003818BF012040429DE75E
:104EC00001239FE7F0B595B00E4605461446002134
:104ED000502268461F4628F063FD2EB9012C46D1AA
:104EE0004FF0FF3015B0F0BD04230393631E069707
:104EF0005A425A41002E4FEAC203059314BF0123C0
:104F000000234FEA0313049347F28D2308BF722353
:104F100002930CBF4FF480734FF4806307934FEA02
:104F2000C2234FEAC26209934FF440531092089390
:104F30000CBF4FF080734FF080630E9319D0012C9B
:104F400014BF0123022341F28832694628460F9399
:104F500002F021FC0028C3D141F288321AA9284668
:104F600002F0C4FC003818BF01204042BAE7012318
:104F7000BBE70123E7E72DE9F04194B00F46064671
:104F80001546002150226846984628F009FD37B999
:104F9000012D4ED14FF0FF3014B0BDE8F081042355
:104FA00003936B1E41F2883269465C423046CDF86D
:104FB00018805C41002F4FEAC403059314BF0123FE
:104FC00000234FEA0313049347F28E1308BF7123A3
:104FD00002930CBF4FF480734FF4806307934FEA42
:104FE000C42309934FF4405308930CBF4FF08073D0
:104FF0004FF080630E934FEAC4634FEA44741093FA
:1050000014BF05230023012D129411930CBF02231A
:1050100001230F9302F0BFFB0028BBD141F288327D
:105020001A99304602F0A6FC003818BF0120404211
:10503000B2E70123B4E770B594B00D4606461446B6
:1050400000215022684628F0ABFC0DBB012C21D07A
:105050000123621E03936946304654425441002D99
:1050600041F2883214BF012300234FEAC4044FEAFF
:1050700003130594049346F2996308BF66230293D1
:1050800002F089FB003818BF0120404214B070BD07
:105090000423DEE74FF0FF30F8E770B594B00D461B
:1050A0000646144600215022684628F079FC0DBBC4
:1050B000012C21D00123621E0393694630465442DD
:1050C0005441002D41F2883214BF012300234FEADE
:1050D000C4044FEA03130594049349F6661308BF0A
:1050E0009923029302F057FB003818BF0120404279
:1050F00014B070BD0423DEE74FF0FF30F8E7000086
:10510000114A08B513680BB9002008BD013B1360B4
:10511000002BF9D14FF480410C4801F08DFB0B4876
:105120004FF4004101F088FB094A0A48D2F8F430F4
:1051300023F08003C2F8F43001F0A6FD0028E3D08C
:105140006FF00700E1E700BFAC2E00240014025806
:1051500000440258B02E00240023012210B5416003
:1051600004460362C0E90232C0E90433C0E90633F1
:1051700001F038FD014608B1012010BD204601F0C4
:105180005AFF01460028F7D1204601F07AFF003887
:1051900018BF0120F1E700009F4BA0482DE9F04F18
:1051A000036093B09E4B1A68009201321A60009B14
:1051B0001BB1002013B0BDE8F08F01F037FF0028CD
:1051C000F7D1984D4FF4804201210426D5F8E03004
:1051D000954843F02003C5F8E030D5F8E03003F0FF
:1051E00020030A930A9BD5F8E03043F02003C5F86A
:1051F000E030D5F8E030119603F020030B930B9BC1
:105200001223CDE90D230223CDE90F130DA901F0DF
:1052100031FA4FF400430DA983480D93119601F024
:1052200029FAD5F8F43043F08003C5F8F430D5F806
:10523000F43003F080030C930C9BD5F89C3043F0C2
:105240008003C5F89C30D5F89C3023F08003C5F866
:105250009C3003F0C9FB00286AD0744B4FF0100952
:10526000009A03EB5003DFF8CCB19246B3FBF0F0A9
:1052700000EB40056E4B86000146C5F132051B6808
:10528000C6F5C37625EAE57526EAE67688464FF048
:10529000000CB8F5AF7FCDF804C00CF1010C5AD367
:1052A0000027BE46BD4250D8BE424ED391454CD099
:1052B000142404FB03FA0133019C0BEB0A097F2B36
:1052C0004BF80A20C9E9014E3CD9594A1360584BA2
:1052D00040F6C412574900271B6802924FF0FF3274
:1052E00005934300C3F5806B03F13204A3F6340346
:1052F0000BF1010B08940993059B9F4237D17F2A3C
:1053000016D814214B4B4A4399189B580C7C44EAFD
:1053100003744B681B0503F470031C438B681B0468
:1053200003F470231C43CB681B029BB223430093FE
:1053300000993A48FFF710FF00283FF43AAF6FF0AA
:10534000070037E791464FF0010A0EF1010E0F44B6
:10535000BEF1100FA6D1BCF1100F884499D10132D3
:105360000144102A92D1BAF1000FAED1AFE70B6819
:105370004FF0000C089C03FB00031C44ABEB03053F
:1053800003946C00039D0194099C1C44079440F213
:105390001454CDF810C00CF1010CA54230D9A5F180
:1053A0003206B0EB960F2BD2079C4FF0000EDDF8C3
:1053B00004906619DDF80C8006F2A11A40F212443E
:1053C000CDF818E00EF1010EA24512D8B8F5167FFF
:1053D0000FD380450DD936EA260A28BFCA46029C5B
:1053E000A24506D2049ACDF808A00A61069ACA60BE
:1053F0003A46BEF5807F98441E44A9EB0309DBD1F1
:10540000019CBCF5807F1D44A4EB03040194BED134
:105410000137143170E700BF001C0058B02E002483
:10542000AC2E0024004402580014025800CA9A3BD3
:10543000A8240024AC2400241FB54FF47A740092F1
:105440000A4601460848CDE90134012301F036FC43
:1054500040B1054801F0EDFD042814BF6FF00300D2
:105460006FF0650004B010BDB02E00241FB54FF4DE
:105470007A7400920A4601460848CDE901340123B6
:1054800001F0F6FC40B1054801F0D3FD042814BF3B
:105490006FF003006FF0650004B010BDB02E002463
:1054A00000F0D2BC30B5214C85B02148A27861789B
:1054B000FFF78FFC18B16FF0040005B030BD032377
:1054C0001B4800934FF44073A2786178FFF7FAFC11
:1054D0000028F0D1A27861781548FFF77AFC0346DE
:1054E0000028E8D1012512480095A2786178FFF7DD
:1054F000E9FC04460028DED1282000F0ABFC22465F
:1055000029460B48FFF744FB03460028D3D103AAE2
:105510002946009202460648FFF72DFD0028CAD111
:105520009DF80C30AB42C8D0C5E700BF042F002463
:105530000C2F002430B5274D85B0274CAA78697808
:105540002046FFF746FC18B16FF0040005B030BDEF
:105550000323204600934FF44073AA786978FFF73D
:10556000B1FC0028F0D1AA7820466978FFF731FC19
:1055700003460028E8D1022220460092AA786978E2
:10558000FFF7A0FC0028DFD1282000F063FC4FF0DB
:1055900080732046E3604FF08053E36202F074F8BA
:1055A000A8B9012220461146FFF7F2FA0346002867
:1055B000CAD103AA2046009201221146FFF7DBFC64
:1055C0000028C1D19DF80C30022BBFD0BCE76FF092
:1055D0000300BBE7042F00240C2F00240E4A0423F1
:1055E000C0E900230A680023026102228360C0E947
:1055F00005234A6842628A6803638262CA68012A94
:10560000C0E9073312BF1A464FF080734FF0805243
:10561000C360C26202F038B80050005210B598B9A9
:105620000B4CA37861785BB901220A48FFF715FBA0
:1056300010B16FF0040010BD022300202370FAE7C0
:105640000448FFF777FBF3E76FF00100F3E700BFD3
:10565000042F00240C2F002410B550B9094C2378D6
:10566000022B09D1084802F05AFA40B901232370ED
:1056700010BD6FF00100FBE76FF01A00F8E76FF064
:105680000300F5E7042F00240C2F002410B5002898
:1056900056D12D4C2378022B4BD000234FF4806140
:1056A0002A482380A37001F0C7F80421284801F09C
:1056B000C3F84021274801F0BFF84FF400612648A5
:1056C00001F0BAF84FF48051234801F0B5F80421F5
:1056D000224801F0B1F84FF400511F4801F0ACF836
:1056E00010211D4801F0A8F820211B4801F0A4F862
:1056F0004FF40071174801F09FF88021164801F01F
:105700009BF8174B1748DA6F42F48042DA67DA6F7A
:1057100022F48042DA67D3F8D42022F48042C3F81E
:10572000D42002F025F8002814BF6FF003000020F9
:1057300010BDFFF791FF0028AFD06FF00400F7E72E
:105740006FF00100F4E700BF042F0024001402589A
:105750000004025800180258000C025800100258A9
:10576000004402580C2F00242DE9FF410D46164637
:10577000002856D12E4C2378022B55D06378012B6C
:1057800046D10129A27809D1964207D101230020F0
:1057900065702370A67004B0BDE8F081254F01212B
:1057A0003846FFF716FB034678BB0090ADF80C00B7
:1057B0003846A2786178FFF785FB804628BB282011
:1057C00000F048FBA378012B06D13846C7F80C80BF
:1057D000C7F82C8001F058FF002216481146FFF749
:1057E000D7F9034688B903AA014600920246114838
:1057F000FFF7C1FB48B99DF80C3033B9012DC5D175
:10580000A3784BB9FFF796FE08E06FF00400C2E7FB
:105810000129BBD1002AF5D1FFF744FE0028BAD1F7
:10582000B4E76FF00100B6E76FF01900B3E700BF0F
:10583000042F00240C2F002400B54FF00072AFB0ED
:1058400000236846CDE9002320235022139305232B
:10585000CDE9023204930223CDE905330023CDE9DB
:105860000833079303F0ECF92FB05DF804FB000058
:105870002DE9F0430D469BB0002840F06081B14E09
:1058800034781CB100201BB0BDE8F083AE4B4FF064
:1058900002094FF00A0811A9D3F8D4200427AB4815
:1058A00042F48042C3F8D420D3F8D42002F48042DA
:1058B0000192019ADA6F42F48042DA67DA6F22F4D9
:1058C0008042DA67D3F8E02042F02002C3F8E020FB
:1058D000D3F8E02002F020020292029AD3F8E020EE
:1058E00042F00202C3F8E020D3F8E02002F0020206
:1058F0000392039AD3F8E02042F04002C3F8E0207C
:10590000D3F8E02002F040020492049AD3F8E02099
:1059100042F00802C3F8E020D3F8E02002F00802C9
:105920000592059AD3F8E02042F00802C3F8E0207F
:10593000D3F8E02002F008020692069AD3F8E0209D
:1059400042F01002C3F8E020D3F8E02002F0100289
:105950000792079AD3F8E02042F00802C3F8E0204B
:10596000D3F8E02002F008020892089AD3F8E02069
:1059700042F00802C3F8E020D3F8E02002F0080269
:105980000992099AD3F8E02042F00802C3F8E02017
:10599000D3F8E02002F008020A920A9AD3F8E02035
:1059A00042F04002C3F8E020D3F8E02002F04002C9
:1059B0000B920B9AD3F8E02042F00802C3F8E020E3
:1059C0000122D3F8E03003F008030C930C9B402332
:1059D000CDE911390323CDF85480CDE9132300F02C
:1059E00049FE11A95A4811971394CDF8548000F03C
:1059F00041FE4FF480631394092411A95548119373
:105A0000159400F037FE4FF4006311A9524811932A
:105A1000159400F02FFE4FF4805311A94E481193B6
:105A2000159400F027FE11A94C48119720271594D2
:105A300000F020FE4FF4005311A94748119315942C
:105A400000F018FE102311A943481193CDF854809B
:105A500000F010FE11A940481197CDF8548000F0D5
:105A600009FE4FF4007311A938481193159400F002
:105A700001FE802311A938481193CDF8548000F01D
:105A8000F9FD11A8FFF76BF8119BCDF8389093FA48
:105A9000A3F30BB1B3FA83F7002331480D970F93AB
:105AA0006B781093FFF7C8FE10B16FF00300EAE6C1
:105AB0000DA92B48FFF792FD02460028F5D10146BB
:105AC0002748FFF7B8FA024610B16FF00400DAE693
:105AD00001462348FFF7E1FA02460028F5D10121EB
